{
 "cells": [
  {
   "cell_type": "code",
   "execution_count": 1,
   "metadata": {},
   "outputs": [],
   "source": [
    "############## PLEASE RUN THIS CELL FIRST! ###################\n",
    "\n",
    "# import everything and define a test runner function\n",
    "from importlib import reload\n",
    "from helper import run\n",
    "\n",
    "import ecc\n",
    "import helper\n",
    "import tx\n",
    "import script"
   ]
  },
  {
   "cell_type": "code",
   "execution_count": 2,
   "metadata": {},
   "outputs": [
    {
     "name": "stdout",
     "output_type": "stream",
     "text": [
      "True\n"
     ]
    }
   ],
   "source": [
    "from tx import Tx\n",
    "from io import BytesIO\n",
    "\n",
    "stream = BytesIO(bytes.fromhex('0100000001813f79011acb80925dfe69b3def355fe914bd1d96a3f5f71bf8303c6a989c7d1000000006b483045022100ed81ff192e75a3fd2304004dcadb746fa5e24c5031ccfcf21320b0277457c98f02207a986d955c6e0cb35d446a89d3f56100f4d7f67801c31967743a9c8e10615bed01210349fc4e631e3624a545de3f89f5d8684c7b8138bd94bdd531d2e213bf016b278afeffffff02a135ef01000000001976a914bc3b654dca7e56b04dca18f2566cdaf02e8d9ada88ac99c39800000000001976a9141c4bc762dd5423e332166702cb75f40df79fea1288ac19430600'))\n",
    "transaction = Tx.parse(stream)\n",
    "print(transaction.fee() >= 0)"
   ]
  },
  {
   "cell_type": "code",
   "execution_count": 3,
   "metadata": {},
   "outputs": [
    {
     "name": "stdout",
     "output_type": "stream",
     "text": [
      "True\n"
     ]
    }
   ],
   "source": [
    "from ecc import S256Point, Signature\n",
    "\n",
    "sec = bytes.fromhex('0349fc4e631e3624a545de3f89f5d8684c7b8138bd94bdd531d2e213bf016b278a')\n",
    "der = bytes.fromhex('3045022100ed81ff192e75a3fd2304004dcadb746fa5e24c5031ccfcf21320b0277457c98f02207a986d955c6e0cb35d446a89d3f56100f4d7f67801c31967743a9c8e10615bed')\n",
    "z = 0x27e0c5994dec7824e56dec6b2fcb342eb7cdb0d0957c2fce9882f715e85d81a6\n",
    "point = S256Point.parse(sec)\n",
    "signature = Signature.parse(der)\n",
    "print(point.verify(z, signature))"
   ]
  },
  {
   "cell_type": "code",
   "execution_count": 4,
   "metadata": {},
   "outputs": [
    {
     "name": "stdout",
     "output_type": "stream",
     "text": [
      "0x27e0c5994dec7824e56dec6b2fcb342eb7cdb0d0957c2fce9882f715e85d81a6\n"
     ]
    }
   ],
   "source": [
    "from helper import hash256\n",
    "\n",
    "blob = bytes.fromhex('0100000001813f79011acb80925dfe69b3def355fe914bd1d96a3f5f71bf8303c6a989c7d1000000001976a914a802fc56c704ce87c42d7c92eb75e7896bdc41ae88acfeffffff02a135ef01000000001976a914bc3b654dca7e56b04dca18f2566cdaf02e8d9ada88ac99c39800000000001976a9141c4bc762dd5423e332166702cb75f40df79fea1288ac1943060001000000')\n",
    "h256 = hash256(blob)\n",
    "z = int.from_bytes(h256, 'big')\n",
    "print(hex(z))"
   ]
  },
  {
   "cell_type": "code",
   "execution_count": 5,
   "metadata": {},
   "outputs": [
    {
     "name": "stdout",
     "output_type": "stream",
     "text": [
      "True\n"
     ]
    }
   ],
   "source": [
    "from ecc import S256Point, Signature\n",
    "\n",
    "sec = bytes.fromhex('0349fc4e631e3624a545de3f89f5d8684c7b8138bd94bdd531d2e213bf016b278a')\n",
    "der = bytes.fromhex('3045022100ed81ff192e75a3fd2304004dcadb746fa5e24c5031ccfcf21320b0277457c98f02207a986d955c6e0cb35d446a89d3f56100f4d7f67801c31967743a9c8e10615bed')\n",
    "z = 0x27e0c5994dec7824e56dec6b2fcb342eb7cdb0d0957c2fce9882f715e85d81a6\n",
    "point = S256Point.parse(sec)\n",
    "signature = Signature.parse(der)\n",
    "print(point.verify(z, signature))"
   ]
  },
  {
   "cell_type": "markdown",
   "metadata": {},
   "source": [
    "### Exercise 1\n",
    "\n",
    "#### Make [this test](/edit/code-ch07/tx.py) pass\n",
    "```\n",
    "tx.py:TxTest::test_sig_hash\n",
    "```"
   ]
  },
  {
   "cell_type": "code",
   "execution_count": null,
   "metadata": {},
   "outputs": [],
   "source": [
    "# Exercise 1\n",
    "\n",
    "reload(tx)\n",
    "run(tx.TxTest('test_sig_hash'))"
   ]
  },
  {
   "cell_type": "markdown",
   "metadata": {},
   "source": [
    "### Exercise 2\n",
    "\n",
    "#### Make [this test](/edit/code-ch07/tx.py) pass\n",
    "```\n",
    "tx.py:TxTest::test_verify_input\n",
    "```"
   ]
  },
  {
   "cell_type": "code",
   "execution_count": null,
   "metadata": {},
   "outputs": [],
   "source": [
    "# Exercise 2\n",
    "\n",
    "reload(tx)\n",
    "run(tx.TxTest('test_verify_input'))"
   ]
  },
  {
   "cell_type": "code",
   "execution_count": null,
   "metadata": {},
   "outputs": [],
   "source": [
    "from helper import decode_base58\n",
    "from script import p2pkh_script, Script\n",
    "from tx import TxIn, TxOut, Tx\n",
    "\n",
    "tx_ins = []\n",
    "prev_tx = bytes.fromhex('0d6fe5213c0b3291f208cba8bfb59b7476dffacc4e5cb66f6eb20a080843a299')\n",
    "prev_index = 13\n",
    "tx_ins.append(TxIn(prev_tx, prev_index, Script([]), 0xffffffff))\n",
    "tx_outs = []\n",
    "change_amount = int(0.33*100000000)\n",
    "change_h160 = decode_base58('mzx5YhAH9kNHtcN481u6WkjeHjYtVeKVh2')\n",
    "change_script = p2pkh_script(change_h160)\n",
    "tx_outs.append(TxOut(amount=change_amount, script_pubkey=change_script))\n",
    "target_amount = int(0.1*100000000)\n",
    "target_h160 = decode_base58('mnrVtF8DWjMu839VW3rBfgYaAfKk8983Xf')\n",
    "target_script = p2pkh_script(target_h160)\n",
    "tx_outs.append(TxOut(amount=target_amount, script_pubkey=target_script))\n",
    "transaction = Tx(1, tx_ins, tx_outs, 0, testnet=True)\n",
    "print(transaction)"
   ]
  },
  {
   "cell_type": "code",
   "execution_count": null,
   "metadata": {},
   "outputs": [],
   "source": [
    "from ecc import PrivateKey\n",
    "from helper import SIGHASH_ALL\n",
    "\n",
    "z = transaction.sig_hash(0, SIGHASH_ALL)\n",
    "private_key = PrivateKey(secret=8675309)\n",
    "der = private_key.sign(z).der()\n",
    "sig = der + hash_type.to_bytes(1, 'big')\n",
    "sec = private_key.point.sec()\n",
    "script_sig = Script([sig, sec])\n",
    "transaction.tx_ins[0].script_sig = script_sig \n",
    "print(transaction.serialize().hex())"
   ]
  },
  {
   "cell_type": "code",
   "execution_count": null,
   "metadata": {},
   "outputs": [],
   "source": [
    "from ecc import PrivateKey\n",
    "\n",
    "private_key = PrivateKey(secret=90210)\n",
    "print(private_key.point.address(testnet=True))"
   ]
  },
  {
   "cell_type": "markdown",
   "metadata": {},
   "source": [
    "### Exercise 3\n",
    "\n",
    "#### Make [this test](/edit/code-ch07/tx.py) pass\n",
    "```\n",
    "tx.py:TxTest:test_sign_input\n",
    "```"
   ]
  },
  {
   "cell_type": "code",
   "execution_count": null,
   "metadata": {},
   "outputs": [],
   "source": [
    "# Exercise 3\n",
    "\n",
    "reload(tx)\n",
    "run(tx.TxTest('test_sign_input'))"
   ]
  },
  {
   "cell_type": "markdown",
   "metadata": {},
   "source": [
    "### Exercise 4\n",
    "\n",
    "#### Send 40% of the tBTC you've received to this address\n",
    "\n",
    "`mwJn1YPMq7y5F8J3LkC5Hxg9PHyZ5K4cFv`\n",
    "\n",
    "#### Go here to send your transaction: https://live.blockcypher.com/btc-testnet/pushtx/\n",
    "\n",
    "#### You can get some free testnet coins at: https://testnet.coinfaucet.eu/en/"
   ]
  },
  {
   "cell_type": "code",
   "execution_count": null,
   "metadata": {},
   "outputs": [],
   "source": [
    "# Exercise 4\n",
    "\n",
    "from ecc import PrivateKey\n",
    "from helper import decode_base58, SIGHASH_ALL\n",
    "from script import p2pkh_script, Script\n",
    "from tx import TxIn, TxOut, Tx\n",
    "\n",
    "# create 1 TxIn and 2 TxOuts\n",
    "# 1 of the TxOuts should be back to your address\n",
    "# the other TxOut should be to this address\n",
    "target_address = 'mwJn1YPMq7y5F8J3LkC5Hxg9PHyZ5K4cFv'\n"
   ]
  },
  {
   "cell_type": "markdown",
   "metadata": {},
   "source": [
    "### Exercise 5\n",
    "\n",
    "#### Get some more testnet coins and spend both outputs (one from your change address and one from the testnet faucet) to\n",
    "\n",
    "`mwJn1YPMq7y5F8J3LkC5Hxg9PHyZ5K4cFv`\n"
   ]
  },
  {
   "cell_type": "code",
   "execution_count": null,
   "metadata": {},
   "outputs": [],
   "source": [
    "from ecc import PrivateKey\n",
    "from helper import decode_base58, SIGHASH_ALL\n",
    "from script import p2pkh_script, Script\n",
    "from tx import TxIn, TxOut, Tx\n",
    "\n",
    "# Create 2 TxIns, 1 from the Exercise 4 and 1 from a testnet faucet\n",
    "# Creat 1 TxOut to the address above\n",
    "\n",
    "target_address = 'mwJn1YPMq7y5F8J3LkC5Hxg9PHyZ5K4cFv'"
   ]
  }
 ],
 "metadata": {
  "kernelspec": {
   "display_name": "Python 3",
   "language": "python",
   "name": "python3"
  },
  "language_info": {
   "codemirror_mode": {
    "name": "ipython",
    "version": 3
   },
   "file_extension": ".py",
   "mimetype": "text/x-python",
   "name": "python",
   "nbconvert_exporter": "python",
   "pygments_lexer": "ipython3",
   "version": "3.6.5"
  }
 },
 "nbformat": 4,
 "nbformat_minor": 2
}
