{
 "cells": [
  {
   "cell_type": "code",
   "execution_count": 2,
   "metadata": {},
   "outputs": [],
   "source": [
    "############## PLEASE RUN THIS CELL FIRST! ###################\n",
    "\n",
    "# import everything and define a test runner function\n",
    "from importlib import reload\n",
    "from helper import run_test\n",
    "\n",
    "import ecc\n",
    "import helper\n",
    "import tx\n",
    "import script"
   ]
  },
  {
   "cell_type": "code",
   "execution_count": 11,
   "metadata": {},
   "outputs": [
    {
     "name": "stdout",
     "output_type": "stream",
     "text": [
      "True\n"
     ]
    }
   ],
   "source": [
    "from tx import Tx\n",
    "from io import BytesIO\n",
    "\n",
    "stream = BytesIO(bytes.fromhex('0100000001813f79011acb80925dfe69b3def355fe914bd1d96a3f5f71bf8303c6a989c7d1000000006b483045022100ed81ff192e75a3fd2304004dcadb746fa5e24c5031ccfcf21320b0277457c98f02207a986d955c6e0cb35d446a89d3f56100f4d7f67801c31967743a9c8e10615bed01210349fc4e631e3624a545de3f89f5d8684c7b8138bd94bdd531d2e213bf016b278afeffffff02a135ef01000000001976a914bc3b654dca7e56b04dca18f2566cdaf02e8d9ada88ac99c39800000000001976a9141c4bc762dd5423e332166702cb75f40df79fea1288ac19430600'))\n",
    "transaction = Tx.parse(stream)\n",
    "print(transaction.fee() >= 0)"
   ]
  },
  {
   "cell_type": "code",
   "execution_count": 13,
   "metadata": {},
   "outputs": [
    {
     "name": "stdout",
     "output_type": "stream",
     "text": [
      "0x27e0c5994dec7824e56dec6b2fcb342eb7cdb0d0957c2fce9882f715e85d81a6\n"
     ]
    }
   ],
   "source": [
    "from helper import double_sha256\n",
    "\n",
    "blob = bytes.fromhex('0100000001813f79011acb80925dfe69b3def355fe914bd1d96a3f5f71bf8303c6a989c7d1000000001976a914a802fc56c704ce87c42d7c92eb75e7896bdc41ae88acfeffffff02a135ef01000000001976a914bc3b654dca7e56b04dca18f2566cdaf02e8d9ada88ac99c39800000000001976a9141c4bc762dd5423e332166702cb75f40df79fea1288ac1943060001000000')\n",
    "d256 = double_sha256(blob)\n",
    "z = int.from_bytes(d256, 'big')\n",
    "print(hex(z))"
   ]
  },
  {
   "cell_type": "code",
   "execution_count": 12,
   "metadata": {},
   "outputs": [
    {
     "name": "stdout",
     "output_type": "stream",
     "text": [
      "True\n"
     ]
    }
   ],
   "source": [
    "from ecc import S256Point, Signature\n",
    "\n",
    "sec = bytes.fromhex('0349fc4e631e3624a545de3f89f5d8684c7b8138bd94bdd531d2e213bf016b278a')\n",
    "der = bytes.fromhex('3045022100ed81ff192e75a3fd2304004dcadb746fa5e24c5031ccfcf21320b0277457c98f02207a986d955c6e0cb35d446a89d3f56100f4d7f67801c31967743a9c8e10615bed')\n",
    "z = 0x27e0c5994dec7824e56dec6b2fcb342eb7cdb0d0957c2fce9882f715e85d81a6\n",
    "point = S256Point.parse(sec)\n",
    "signature = Signature.parse(der)\n",
    "print(point.verify(z, signature))"
   ]
  },
  {
   "cell_type": "markdown",
   "metadata": {},
   "source": [
    "### Exercise 1\n",
    "\n",
    "#### Make [this test](/edit/code-ch07/tx.py) pass\n",
    "```\n",
    "tx.py:TxTest::test_sig_hash\n",
    "```"
   ]
  },
  {
   "cell_type": "code",
   "execution_count": 22,
   "metadata": {},
   "outputs": [
    {
     "name": "stderr",
     "output_type": "stream",
     "text": [
      ".\n",
      "----------------------------------------------------------------------\n",
      "Ran 1 test in 0.121s\n",
      "\n",
      "OK\n"
     ]
    }
   ],
   "source": [
    "# Exercise 1\n",
    "\n",
    "reload(tx)\n",
    "run_test(tx.TxTest('test_sig_hash'))"
   ]
  },
  {
   "cell_type": "markdown",
   "metadata": {},
   "source": [
    "### Exercise 2\n",
    "\n",
    "#### Make [this test](/edit/code-ch07/tx.py) pass\n",
    "```\n",
    "tx.py:TxTest::test_verify_input\n",
    "```"
   ]
  },
  {
   "cell_type": "code",
   "execution_count": 15,
   "metadata": {},
   "outputs": [
    {
     "name": "stderr",
     "output_type": "stream",
     "text": [
      "E\n",
      "======================================================================\n",
      "ERROR: test_verify_input (tx.TxTest)\n",
      "----------------------------------------------------------------------\n",
      "Traceback (most recent call last):\n",
      "  File \"/home/jimmy/programming-bitcoin/code-ch07/tx.py\", line 400, in test_verify_input\n",
      "    self.assertTrue(tx.verify_input(0))\n",
      "  File \"/home/jimmy/programming-bitcoin/code-ch07/tx.py\", line 110, in verify_input\n",
      "    raise NotImplementedError\n",
      "NotImplementedError\n",
      "\n",
      "----------------------------------------------------------------------\n",
      "Ran 1 test in 0.002s\n",
      "\n",
      "FAILED (errors=1)\n"
     ]
    }
   ],
   "source": [
    "# Exercise 2\n",
    "\n",
    "reload(tx)\n",
    "run_test(tx.TxTest('test_verify_input'))"
   ]
  },
  {
   "cell_type": "code",
   "execution_count": 24,
   "metadata": {},
   "outputs": [
    {
     "name": "stdout",
     "output_type": "stream",
     "text": [
      "version: 1\n",
      "tx_ins:\n",
      "0d6fe5213c0b3291f208cba8bfb59b7476dffacc4e5cb66f6eb20a080843a299:13\n",
      "\n",
      "tx_outs:\n",
      "33000000:OP_DUP OP_HASH160 d52ad7ca9b3d096a38e752c2018e6fbc40cdf26f OP_EQUALVERIFY OP_CHECKSIG \n",
      "10000000:OP_DUP OP_HASH160 507b27411ccf7f16f10297de6cef3f291623eddf OP_EQUALVERIFY OP_CHECKSIG \n",
      "\n",
      "locktime: 0\n",
      "\n"
     ]
    }
   ],
   "source": [
    "from helper import decode_base58, p2pkh_script\n",
    "from script import Script\n",
    "from tx import TxIn, TxOut, Tx\n",
    "\n",
    "tx_ins = []\n",
    "prev_tx = bytes.fromhex('0d6fe5213c0b3291f208cba8bfb59b7476dffacc4e5cb66f6eb20a080843a299')\n",
    "prev_index = 13\n",
    "tx_ins.append(TxIn(prev_tx, prev_index, b'', 0xffffffff))\n",
    "tx_outs = []\n",
    "change_amount = int(0.33*100000000)\n",
    "change_h160 = decode_base58('mzx5YhAH9kNHtcN481u6WkjeHjYtVeKVh2')\n",
    "change_script = p2pkh_script(change_h160)\n",
    "tx_outs.append(TxOut(amount=change_amount, script_pubkey=change_script))\n",
    "target_amount = int(0.1*100000000)\n",
    "target_h160 = decode_base58('mnrVtF8DWjMu839VW3rBfgYaAfKk8983Xf')\n",
    "target_script = p2pkh_script(target_h160)\n",
    "tx_outs.append(TxOut(amount=target_amount, script_pubkey=target_script))\n",
    "transaction = Tx(1, tx_ins, tx_outs, 0, testnet=True)\n",
    "print(transaction)"
   ]
  },
  {
   "cell_type": "code",
   "execution_count": 25,
   "metadata": {},
   "outputs": [
    {
     "name": "stdout",
     "output_type": "stream",
     "text": [
      "010000000199a24308080ab26e6fb65c4eccfadf76749bb5bfa8cb08f291320b3c21e56f0d0d0000006a47304402207de4c54c5dffefd8cb98fe3fd86faf7411a993b2e76d19d19bc7ac025ebf575602207b5d02bd7e9606e0cfc7cbba1a87dcff19ea2f7ab9af9aaf885d921aec413273012103935581e52c354cd2f484fe8ed83af7a3097005b2f9c60bff71d35bd795f54b67ffffffff02408af701000000001976a914d52ad7ca9b3d096a38e752c2018e6fbc40cdf26f88ac80969800000000001976a914507b27411ccf7f16f10297de6cef3f291623eddf88ac00000000\n"
     ]
    }
   ],
   "source": [
    "from ecc import PrivateKey\n",
    "from helper import SIGHASH_ALL\n",
    "\n",
    "hash_type = SIGHASH_ALL\n",
    "z = transaction.sig_hash(0, hash_type)\n",
    "private_key = PrivateKey(secret=8675309)\n",
    "der = private_key.sign(z).der()\n",
    "sig = der + hash_type.to_bytes(1, 'big')\n",
    "sec = private_key.point.sec()\n",
    "script_sig = Script([sig, sec])\n",
    "transaction.tx_ins[0].script_sig = script_sig \n",
    "print(transaction.serialize().hex())"
   ]
  },
  {
   "cell_type": "code",
   "execution_count": 28,
   "metadata": {},
   "outputs": [
    {
     "name": "stdout",
     "output_type": "stream",
     "text": [
      "mqNK1JUujDXeufN9bDVKtzzvriqjnZLxHU\n"
     ]
    }
   ],
   "source": [
    "from ecc import PrivateKey\n",
    "\n",
    "private_key = PrivateKey(secret=90210)\n",
    "print(private_key.point.address(testnet=True))"
   ]
  },
  {
   "cell_type": "markdown",
   "metadata": {},
   "source": [
    "### Exercise 3\n",
    "\n",
    "#### Make [this test](/edit/code-ch07/tx.py) pass\n",
    "```\n",
    "tx.py:TxTest:test_sign_input\n",
    "```"
   ]
  },
  {
   "cell_type": "code",
   "execution_count": 26,
   "metadata": {},
   "outputs": [
    {
     "name": "stderr",
     "output_type": "stream",
     "text": [
      "E\n",
      "======================================================================\n",
      "ERROR: test_sign_input (tx.TxTest)\n",
      "----------------------------------------------------------------------\n",
      "Traceback (most recent call last):\n",
      "  File \"/home/jimmy/programming-bitcoin/code-ch07/tx.py\", line 454, in test_sign_input\n",
      "    self.assertTrue(tx.sign_input(0, private_key, SIGHASH_ALL))\n",
      "  File \"/home/jimmy/programming-bitcoin/code-ch07/tx.py\", line 156, in sign_input\n",
      "    return self.verify_input(input_index)\n",
      "  File \"/home/jimmy/programming-bitcoin/code-ch07/tx.py\", line 139, in verify_input\n",
      "    raise NotImplementedError\n",
      "NotImplementedError\n",
      "\n",
      "----------------------------------------------------------------------\n",
      "Ran 1 test in 0.974s\n",
      "\n",
      "FAILED (errors=1)\n"
     ]
    }
   ],
   "source": [
    "# Exercise 3\n",
    "\n",
    "reload(tx)\n",
    "run_test(tx.TxTest('test_sign_input'))"
   ]
  },
  {
   "cell_type": "markdown",
   "metadata": {},
   "source": [
    "### Exercise 4\n",
    "\n",
    "#### Send 40% of the tBTC you've received to this address\n",
    "\n",
    "`mwJn1YPMq7y5F8J3LkC5Hxg9PHyZ5K4cFv`\n",
    "\n",
    "#### Go here to send your transaction: https://live.blockcypher.com/btc-testnet/pushtx/\n",
    "\n",
    "#### You can get some free testnet coins at: https://testnet.coinfaucet.eu/en/"
   ]
  },
  {
   "cell_type": "code",
   "execution_count": 5,
   "metadata": {},
   "outputs": [
    {
     "name": "stdout",
     "output_type": "stream",
     "text": [
      "mzx5YhAH9kNHtcN481u6WkjeHjYtVeKVh2\n"
     ]
    },
    {
     "ename": "RuntimeError",
     "evalue": "Output is not something you can spend with this private key. Check that the prev_tx and prev_index are correct",
     "output_type": "error",
     "traceback": [
      "\u001b[0;31m---------------------------------------------------------------------------\u001b[0m",
      "\u001b[0;31mRuntimeError\u001b[0m                              Traceback (most recent call last)",
      "\u001b[0;32m<ipython-input-5-41e2ec326254>\u001b[0m in \u001b[0;36m<module>\u001b[0;34m()\u001b[0m\n\u001b[1;32m     63\u001b[0m \u001b[0;31m# SANITY CHECK: output's script_pubkey is the same one as your address\u001b[0m\u001b[0;34m\u001b[0m\u001b[0;34m\u001b[0m\u001b[0m\n\u001b[1;32m     64\u001b[0m \u001b[0;32mif\u001b[0m \u001b[0mtx_ins\u001b[0m\u001b[0;34m[\u001b[0m\u001b[0;36m0\u001b[0m\u001b[0;34m]\u001b[0m\u001b[0;34m.\u001b[0m\u001b[0mscript_pubkey\u001b[0m\u001b[0;34m(\u001b[0m\u001b[0mtestnet\u001b[0m\u001b[0;34m=\u001b[0m\u001b[0;32mTrue\u001b[0m\u001b[0;34m)\u001b[0m\u001b[0;34m.\u001b[0m\u001b[0melements\u001b[0m\u001b[0;34m[\u001b[0m\u001b[0;36m2\u001b[0m\u001b[0;34m]\u001b[0m \u001b[0;34m!=\u001b[0m \u001b[0mdecode_base58\u001b[0m\u001b[0;34m(\u001b[0m\u001b[0mchange_address\u001b[0m\u001b[0;34m)\u001b[0m\u001b[0;34m:\u001b[0m\u001b[0;34m\u001b[0m\u001b[0m\n\u001b[0;32m---> 65\u001b[0;31m     \u001b[0;32mraise\u001b[0m \u001b[0mRuntimeError\u001b[0m\u001b[0;34m(\u001b[0m\u001b[0;34m'Output is not something you can spend with this private key. Check that the prev_tx and prev_index are correct'\u001b[0m\u001b[0;34m)\u001b[0m\u001b[0;34m\u001b[0m\u001b[0m\n\u001b[0m\u001b[1;32m     66\u001b[0m \u001b[0;34m\u001b[0m\u001b[0m\n\u001b[1;32m     67\u001b[0m \u001b[0;31m# SANITY CHECK: fee is reasonable\u001b[0m\u001b[0;34m\u001b[0m\u001b[0;34m\u001b[0m\u001b[0m\n",
      "\u001b[0;31mRuntimeError\u001b[0m: Output is not something you can spend with this private key. Check that the prev_tx and prev_index are correct"
     ]
    }
   ],
   "source": [
    "# Exercise 4\n",
    "\n",
    "from ecc import PrivateKey\n",
    "from helper import decode_base58, p2pkh_script, SIGHASH_ALL\n",
    "from script import Script\n",
    "from tx import TxIn, TxOut, Tx\n",
    "\n",
    "# create 1 TxIn and 2 TxOuts, 1 of the TxOuts should be back to your address\n",
    "target_address = 'mwJn1YPMq7y5F8J3LkC5Hxg9PHyZ5K4cFv'"
   ]
  },
  {
   "cell_type": "markdown",
   "metadata": {},
   "source": [
    "### Exercise 5\n",
    "\n",
    "#### Get some more testnet coins and spend both outputs (one from your change address and one from the testnet faucet) to\n",
    "\n",
    "`mwJn1YPMq7y5F8J3LkC5Hxg9PHyZ5K4cFv`\n"
   ]
  },
  {
   "cell_type": "code",
   "execution_count": 6,
   "metadata": {},
   "outputs": [
    {
     "name": "stdout",
     "output_type": "stream",
     "text": [
      "0100000002f48a065c1236ddf8033d2a1bc0ada4bca9da6adf4a5c1fb11edfaddd2efecb89000000006a47304402205b163c96216653e000c43521970cba3e1f115affb8935aeabc2e44ca2766497e0220578a2e8150b7663ef01d6c4f34d7798d357d850d93049a7b63aeba8be81fb4bd012103f96f3a1efd31e1a8d7078118ee56bff7355d58907ce0f865f5f0b3dbe34e55befffffffff45ca5fc10cdf70aa347fcec838e97e021e88ed5d91133e0705fd904139e0619000000006b483045022100c0e7f756d07f262255bf96b00770d6b6bfa72f85376d9f0f07fc56386e5b206a02201d34ef0338726d7cc26205dea66e657b47011e55f67735f9bd3e869ec3e75ef8012103f96f3a1efd31e1a8d7078118ee56bff7355d58907ce0f865f5f0b3dbe34e55beffffffff01c040310a000000001976a9149e153ce5de3689901301309b9e8d804ab4804d4b88ac00000000\n"
     ]
    }
   ],
   "source": [
    "from ecc import PrivateKey\n",
    "from helper import decode_base58, p2pkh_script, SIGHASH_ALL\n",
    "from script import Script\n",
    "from tx import TxIn, TxOut, Tx\n",
    "\n",
    "# Create 2 TxIns, 1 from the Exercise 4 and 1 from a testnet faucet\n",
    "# Creat 1 TxOut to the address above\n",
    "\n",
    "target_address = 'mwJn1YPMq7y5F8J3LkC5Hxg9PHyZ5K4cFv'"
   ]
  },
  {
   "cell_type": "markdown",
   "metadata": {},
   "source": [
    "### Exercise 4\n",
    "\n",
    "#### 4.1. Find the hash160 of the RedeemScript\n",
    "```\n",
    "5221022626e955ea6ea6d98850c994f9107b036b1334f18ca8830bfff1295d21cfdb702103b287eaf122eea69030a0e9feed096bed8045c8b98bec453e1ffac7fbdbd4bb7152ae\n",
    "```"
   ]
  },
  {
   "cell_type": "code",
   "execution_count": 7,
   "metadata": {},
   "outputs": [
    {
     "name": "stdout",
     "output_type": "stream",
     "text": [
      "74d691da1574e6b3c192ecfb52cc8984ee7b6c56\n"
     ]
    }
   ],
   "source": [
    "# Exercise 4.1\n",
    "\n",
    "from helper import hash160\n",
    "\n",
    "hex_redeem_script = '5221022626e955ea6ea6d98850c994f9107b036b1334f18ca8830bfff1295d21cfdb702103b287eaf122eea69030a0e9feed096bed8045c8b98bec453e1ffac7fbdbd4bb7152ae'\n",
    "\n",
    "# bytes.fromhex script\n",
    "redeem_script = bytes.fromhex(hex_redeem_script)\n",
    "# hash160 result\n",
    "h160 = hash160(redeem_script)\n",
    "# hex() to display\n",
    "print(h160.hex())"
   ]
  },
  {
   "cell_type": "code",
   "execution_count": 8,
   "metadata": {},
   "outputs": [
    {
     "name": "stdout",
     "output_type": "stream",
     "text": [
      "3CLoMMyuoDQTPRD3XYZtCvgvkadrAdvdXh\n"
     ]
    }
   ],
   "source": [
    "# P2SH address construction example\n",
    "\n",
    "from helper import encode_base58_checksum\n",
    "\n",
    "print(encode_base58_checksum(b'\\x05'+bytes.fromhex('74d691da1574e6b3c192ecfb52cc8984ee7b6c56')))"
   ]
  },
  {
   "cell_type": "markdown",
   "metadata": {},
   "source": [
    "### Exercise 5\n",
    "\n",
    "#### 5.1. Make [these tests](/edit/session5/helper.py) pass\n",
    "```\n",
    "helper.py:HelperTest:test_p2pkh_address\n",
    "helper.py:HelperTest:test_p2sh_address\n",
    "```"
   ]
  },
  {
   "cell_type": "code",
   "execution_count": 9,
   "metadata": {},
   "outputs": [
    {
     "name": "stderr",
     "output_type": "stream",
     "text": [
      ".\n",
      "----------------------------------------------------------------------\n",
      "Ran 1 test in 0.001s\n",
      "\n",
      "OK\n",
      ".\n",
      "----------------------------------------------------------------------\n",
      "Ran 1 test in 0.001s\n",
      "\n",
      "OK\n"
     ]
    }
   ],
   "source": [
    "# Exercise 5.1\n",
    "\n",
    "reload(helper)\n",
    "run_test(helper.HelperTest('test_p2pkh_address'))\n",
    "run_test(helper.HelperTest('test_p2sh_address'))"
   ]
  },
  {
   "cell_type": "code",
   "execution_count": 10,
   "metadata": {},
   "outputs": [
    {
     "name": "stdout",
     "output_type": "stream",
     "text": [
      "0xe71bfa115715d6fd33796948126f40a8cdd39f187e4afb03896795189fe1423c\n"
     ]
    }
   ],
   "source": [
    "# z for p2sh example\n",
    "\n",
    "from helper import double_sha256\n",
    "\n",
    "sha = double_sha256(bytes.fromhex('0100000001868278ed6ddfb6c1ed3ad5f8181eb0c7a385aa0836f01d5e4789e6bd304d87221a000000475221022626e955ea6ea6d98850c994f9107b036b1334f18ca8830bfff1295d21cfdb702103b287eaf122eea69030a0e9feed096bed8045c8b98bec453e1ffac7fbdbd4bb7152aeffffffff04d3b11400000000001976a914904a49878c0adfc3aa05de7afad2cc15f483a56a88ac7f400900000000001976a914418327e3f3dda4cf5b9089325a4b95abdfa0334088ac722c0c00000000001976a914ba35042cfe9fc66fd35ac2224eebdafd1028ad2788acdc4ace020000000017a91474d691da1574e6b3c192ecfb52cc8984ee7b6c56870000000001000000'))\n",
    "z = int.from_bytes(sha, 'big')\n",
    "                    \n",
    "print(hex(z))"
   ]
  },
  {
   "cell_type": "code",
   "execution_count": 11,
   "metadata": {},
   "outputs": [
    {
     "name": "stdout",
     "output_type": "stream",
     "text": [
      "True\n"
     ]
    }
   ],
   "source": [
    "# p2sh verification example\n",
    "\n",
    "from ecc import S256Point, Signature\n",
    "from helper import double_sha256\n",
    "\n",
    "sha = double_sha256(bytes.fromhex('0100000001868278ed6ddfb6c1ed3ad5f8181eb0c7a385aa0836f01d5e4789e6bd304d87221a000000475221022626e955ea6ea6d98850c994f9107b036b1334f18ca8830bfff1295d21cfdb702103b287eaf122eea69030a0e9feed096bed8045c8b98bec453e1ffac7fbdbd4bb7152aeffffffff04d3b11400000000001976a914904a49878c0adfc3aa05de7afad2cc15f483a56a88ac7f400900000000001976a914418327e3f3dda4cf5b9089325a4b95abdfa0334088ac722c0c00000000001976a914ba35042cfe9fc66fd35ac2224eebdafd1028ad2788acdc4ace020000000017a91474d691da1574e6b3c192ecfb52cc8984ee7b6c56870000000001000000'))\n",
    "z = int.from_bytes(sha, 'big')\n",
    "point = S256Point.parse(bytes.fromhex('022626e955ea6ea6d98850c994f9107b036b1334f18ca8830bfff1295d21cfdb70'))\n",
    "sig = Signature.parse(bytes.fromhex('3045022100dc92655fe37036f47756db8102e0d7d5e28b3beb83a8fef4f5dc0559bddfb94e02205a36d4e4e6c7fcd16658c50783e00c341609977aed3ad00937bf4ee942a89937'))\n",
    "print(point.verify(z, sig))"
   ]
  },
  {
   "cell_type": "markdown",
   "metadata": {},
   "source": [
    "### Exercise 6\n",
    "\n",
    "#### 6.1. Validate the second signature of the first input\n",
    "\n",
    "```\n",
    "0100000001868278ed6ddfb6c1ed3ad5f8181eb0c7a385aa0836f01d5e4789e6bd304d87221a000000db00483045022100dc92655fe37036f47756db8102e0d7d5e28b3beb83a8fef4f5dc0559bddfb94e02205a36d4e4e6c7fcd16658c50783e00c341609977aed3ad00937bf4ee942a8993701483045022100da6bee3c93766232079a01639d07fa869598749729ae323eab8eef53577d611b02207bef15429dcadce2121ea07f233115c6f09034c0be68db99980b9a6c5e75402201475221022626e955ea6ea6d98850c994f9107b036b1334f18ca8830bfff1295d21cfdb702103b287eaf122eea69030a0e9feed096bed8045c8b98bec453e1ffac7fbdbd4bb7152aeffffffff04d3b11400000000001976a914904a49878c0adfc3aa05de7afad2cc15f483a56a88ac7f400900000000001976a914418327e3f3dda4cf5b9089325a4b95abdfa0334088ac722c0c00000000001976a914ba35042cfe9fc66fd35ac2224eebdafd1028ad2788acdc4ace020000000017a91474d691da1574e6b3c192ecfb52cc8984ee7b6c568700000000\n",
    "```\n",
    "\n",
    "The sec pubkey of the second signature is:\n",
    "```\n",
    "03b287eaf122eea69030a0e9feed096bed8045c8b98bec453e1ffac7fbdbd4bb71\n",
    "```\n",
    "\n",
    "The der signature of the second signature is:\n",
    "```\n",
    "3045022100da6bee3c93766232079a01639d07fa869598749729ae323eab8eef53577d611b02207bef15429dcadce2121ea07f233115c6f09034c0be68db99980b9a6c5e75402201475221022\n",
    "```\n",
    "\n",
    "The redeemScript is:\n",
    "```\n",
    "475221022626e955ea6ea6d98850c994f9107b036b1334f18ca8830bfff1295d21cfdb702103b287eaf122eea69030a0e9feed096bed8045c8b98bec453e1ffac7fbdbd4bb7152ae\n",
    "```"
   ]
  },
  {
   "cell_type": "code",
   "execution_count": 12,
   "metadata": {},
   "outputs": [
    {
     "name": "stdout",
     "output_type": "stream",
     "text": [
      "True\n"
     ]
    }
   ],
   "source": [
    "# Exercise 6.1\n",
    "\n",
    "from io import BytesIO\n",
    "from ecc import S256Point, Signature\n",
    "from helper import double_sha256, int_to_little_endian\n",
    "from script import Script\n",
    "from tx import Tx, SIGHASH_ALL\n",
    "\n",
    "hex_sec = '03b287eaf122eea69030a0e9feed096bed8045c8b98bec453e1ffac7fbdbd4bb71'\n",
    "hex_der = '3045022100da6bee3c93766232079a01639d07fa869598749729ae323eab8eef53577d611b02207bef15429dcadce2121ea07f233115c6f09034c0be68db99980b9a6c5e754022'\n",
    "hex_redeem_script = '5221022626e955ea6ea6d98850c994f9107b036b1334f18ca8830bfff1295d21cfdb702103b287eaf122eea69030a0e9feed096bed8045c8b98bec453e1ffac7fbdbd4bb7152ae'\n",
    "sec = bytes.fromhex(hex_sec)\n",
    "der = bytes.fromhex(hex_der)\n",
    "redeem_script = bytes.fromhex(hex_redeem_script)\n",
    "\n",
    "hex_tx = '0100000001868278ed6ddfb6c1ed3ad5f8181eb0c7a385aa0836f01d5e4789e6bd304d87221a000000db00483045022100dc92655fe37036f47756db8102e0d7d5e28b3beb83a8fef4f5dc0559bddfb94e02205a36d4e4e6c7fcd16658c50783e00c341609977aed3ad00937bf4ee942a8993701483045022100da6bee3c93766232079a01639d07fa869598749729ae323eab8eef53577d611b02207bef15429dcadce2121ea07f233115c6f09034c0be68db99980b9a6c5e75402201475221022626e955ea6ea6d98850c994f9107b036b1334f18ca8830bfff1295d21cfdb702103b287eaf122eea69030a0e9feed096bed8045c8b98bec453e1ffac7fbdbd4bb7152aeffffffff04d3b11400000000001976a914904a49878c0adfc3aa05de7afad2cc15f483a56a88ac7f400900000000001976a914418327e3f3dda4cf5b9089325a4b95abdfa0334088ac722c0c00000000001976a914ba35042cfe9fc66fd35ac2224eebdafd1028ad2788acdc4ace020000000017a91474d691da1574e6b3c192ecfb52cc8984ee7b6c568700000000'\n",
    "stream = BytesIO(bytes.fromhex(hex_tx))\n",
    "\n",
    "# parse the S256Point and Signature\n",
    "point = S256Point.parse(sec)\n",
    "sig = Signature.parse(der)\n",
    "# parse the Tx\n",
    "t = Tx.parse(stream)\n",
    "# change the first input's scriptSig to redeemScript (use Script.parse on the redeemScript)\n",
    "t.tx_ins[0].script_sig = Script.parse(redeem_script)\n",
    "# get the serialization\n",
    "ser = t.serialize()\n",
    "# add the sighash (4 bytes, little-endian of SIGHASH_ALL)\n",
    "ser += int_to_little_endian(SIGHASH_ALL, 4)\n",
    "# double_sha256 the result\n",
    "to_sign = double_sha256(ser)\n",
    "# this interpreted is a big-endian number is your z\n",
    "z = int.from_bytes(to_sign, 'big')\n",
    "# now verify the signature using point.verify\n",
    "print(point.verify(z, sig))"
   ]
  }
 ],
 "metadata": {
  "kernelspec": {
   "display_name": "Python 3",
   "language": "python",
   "name": "python3"
  },
  "language_info": {
   "codemirror_mode": {
    "name": "ipython",
    "version": 3
   },
   "file_extension": ".py",
   "mimetype": "text/x-python",
   "name": "python",
   "nbconvert_exporter": "python",
   "pygments_lexer": "ipython3",
   "version": "3.6.5"
  }
 },
 "nbformat": 4,
 "nbformat_minor": 2
}
