from io import BytesIO
from unittest import TestCase

import json
import requests

from ecc import PrivateKey
from helper import (
    encode_varint,
    hash256,
    int_to_little_endian,
    little_endian_to_int,
    read_varint,
    SIGHASH_ALL,
)
from script import Script


class TxFetcher:
    cache = {}

    @classmethod
    def get_url(cls, testnet=False):
        if testnet:
            return 'http://tbtc.programmingblockchain.com:18332'
        else:
            return 'http://btc.programmingblockchain.com:8332'

    @classmethod
    def fetch(cls, tx_id, testnet=False, fresh=False):
        if fresh or (tx_id not in cls.cache):
            url = '{}/rest/tx/{}.hex'.format(cls.get_url(testnet), tx_id)
            response = requests.get(url)
            try:
                raw = bytes.fromhex(response.text.strip())
            except ValueError:
                raise ValueError('unexpected response: {}'.format(response.text))
            # make sure the tx we got matches to the hash we requested
            tx = Tx.parse(BytesIO(raw), testnet=testnet)
            if tx.id() != tx_id:
                raise ValueError('not the same id: {} vs {}'.format(tx.id(), tx_id))
            cls.cache[tx_id] = tx
        cls.cache[tx_id].testnet = testnet
        return cls.cache[tx_id]

    @classmethod
    def load_cache(cls, filename):
        disk_cache = json.loads(open(filename, 'r').read())
        for k, raw_hex in disk_cache.items():
            cls.cache[k] = Tx.parse(BytesIO(bytes.fromhex(raw_hex)))

    @classmethod
    def dump_cache(cls, filename):
        with open(filename, 'w') as f:
            to_dump = {k: tx.serialize().hex() for k, tx in cls.cache.items()}
            s = json.dumps(to_dump, sort_keys=True, indent=4)
            f.write(s)


class Tx:

    def __init__(self, version, tx_ins, tx_outs, locktime, testnet=False):
        self.version = version
        self.tx_ins = tx_ins
        self.tx_outs = tx_outs
        self.locktime = locktime
        self.testnet = testnet

    def __repr__(self):
        tx_ins = ''
        for tx_in in self.tx_ins:
            tx_ins += tx_in.__repr__() + '\n'
        tx_outs = ''
        for tx_out in self.tx_outs:
            tx_outs += tx_out.__repr__() + '\n'
        return 'version: {}\ntx_ins:\n{}\ntx_outs:\n{}\nlocktime: {}\n'.format(
            self.version,
            tx_ins,
            tx_outs,
            self.locktime,
        )

    def id(self):
        '''Human-readable hexadecimal of the transaction hash'''
        return self.hash().hex()

    def hash(self):
        '''Binary hash of the legacy serialization'''
        return hash256(self.serialize())[::-1]

    @classmethod
    def parse(cls, s, testnet=False):
        '''Takes a byte stream and parses the transaction at the start
        return a Tx object
        '''
        # s.read(n) will return n bytes
        # version has 4 bytes, little-endian, interpret as int
        version = little_endian_to_int(s.read(4))
        # num_inputs is a varint, use read_varint(s)
        num_inputs = read_varint(s)
        # each input needs parsing
        inputs = []
        for _ in range(num_inputs):
            inputs.append(TxIn.parse(s))
        # num_outputs is a varint, use read_varint(s)
        num_outputs = read_varint(s)
        # each output needs parsing
        outputs = []
        for _ in range(num_outputs):
            outputs.append(TxOut.parse(s))
        # locktime is 4 bytes, little-endian
        locktime = little_endian_to_int(s.read(4))
        # return an instance of the class (cls(...))
        return cls(version, inputs, outputs, locktime, testnet=testnet)

    def serialize(self):
        '''Returns the byte serialization of the transaction'''
        # serialize version (4 bytes, little endian)
        result = int_to_little_endian(self.version, 4)
        # encode_varint on the number of inputs
        result += encode_varint(len(self.tx_ins))
        # iterate inputs
        for tx_in in self.tx_ins:
            # serialize each input
            result += tx_in.serialize()
        # encode_varint on the number of outputs
        result += encode_varint(len(self.tx_outs))
        # iterate outputs
        for tx_out in self.tx_outs:
            # serialize each output
            result += tx_out.serialize()
        # serialize locktime (4 bytes, little endian)
        result += int_to_little_endian(self.locktime, 4)
        return result

    def fee(self, testnet=False):
        '''Returns the fee of this transaction in satoshi'''
        # initialize input sum and output sum
        input_sum, output_sum = 0, 0
        # iterate through inputs
        for tx_in in self.tx_ins:
            # for each input get the value and add to input sum
            input_sum += tx_in.value(testnet=testnet)
        # iterate through outputs
        for tx_out in self.tx_outs:
            # for each output get the amount and add to output sum
            output_sum += tx_out.amount
        # return input sum - output sum
        return input_sum - output_sum

    def sig_hash(self, input_index):
        '''Returns the integer representation of the hash that needs to get
        signed for index input_index'''
        raise NotImplementedError

    def verify_input(self, input_index):
        '''Returns whether the input has a valid signature'''
        raise NotImplementedError

    def verify(self):
        '''Verify this transaction'''
        if self.fee() < 0:
            return False
        for i in range(len(self.tx_ins)):
            if not self.verify_input(i):
                return False
        return True

    def sign_input(self, input_index, private_key):
        raise NotImplementedError


class TxIn:

    cache = {}

    def __init__(self, prev_tx, prev_index, script_sig, sequence):
        self.prev_tx = prev_tx
        self.prev_index = prev_index
        self.script_sig = script_sig
        self.sequence = sequence

    def __repr__(self):
        return '{}:{}'.format(
            self.prev_tx.hex(),
            self.prev_index,
        )

    @classmethod
    def parse(cls, s):
        '''Takes a byte stream and parses the tx_input at the start
        return a TxIn object
        '''
        # s.read(n) will return n bytes
        # prev_tx is 32 bytes, little endian
        prev_tx = s.read(32)[::-1]
        # prev_index is 4 bytes, little endian, interpret as int
        prev_index = little_endian_to_int(s.read(4))
        # script_sig is a variable field (length followed by the data)
        # you can use Script.parse to get the actual script
        script_sig = Script.parse(s)
        # sequence is 4 bytes, little-endian, interpret as int
        sequence = little_endian_to_int(s.read(4))
        # return an instance of the class (cls(...))
        return cls(prev_tx, prev_index, script_sig, sequence)

    def serialize(self):
        '''Returns the byte serialization of the transaction input'''
        # serialize prev_tx, little endian
        result = self.prev_tx[::-1]
        # serialize prev_index, 4 bytes, little endian
        result += int_to_little_endian(self.prev_index, 4)
        # add the ScriptSig (use self.script_sig.serialize())
        result += self.script_sig.serialize()
        # serialize sequence, 4 bytes, little endian
        result += int_to_little_endian(self.sequence, 4)
        return result

    def fetch_tx(self, testnet=False):
        return TxFetcher.fetch(self.prev_tx.hex(), testnet=testnet)

    def value(self, testnet=False):
        '''Get the outpoint value by looking up the tx hash
        Returns the amount in satoshi
        '''
        # use self.fetch_tx to get the transaction
        tx = self.fetch_tx(testnet=testnet)
        # get the output at self.prev_index
        # return the amount property
        return tx.tx_outs[self.prev_index].amount

    def script_pubkey(self, testnet=False):
        '''Get the scriptPubKey by looking up the tx hash
        Returns a Script object
        '''
        # use self.fetch_tx to get the transaction
        tx = self.fetch_tx(testnet=testnet)
        # get the output at self.prev_index
        # return the script_pubkey property
        return tx.tx_outs[self.prev_index].script_pubkey


class TxOut:

    def __init__(self, amount, script_pubkey):
        self.amount = amount
        self.script_pubkey = script_pubkey

    def __repr__(self):
        return '{}:{}'.format(self.amount, self.script_pubkey)

    @classmethod
    def parse(cls, s):
        '''Takes a byte stream and parses the tx_output at the start
        return a TxOut object
        '''
        # s.read(n) will return n bytes
        # amount is 8 bytes, little endian, interpret as int
        amount = little_endian_to_int(s.read(8))
        # script_pubkey is a variable field (length followed by the data)
        # you can use Script.parse to get the actual script
        script_pubkey = Script.parse(s)
        # return an instance of the class (cls(...))
        return cls(amount, script_pubkey)

    def serialize(self):
        '''Returns the byte serialization of the transaction output'''
        # serialize amount, 8 bytes, little endian
        result = int_to_little_endian(self.amount, 8)
        # add the ScriptPubkey (use self.script_pubkey.serialize())
        result += self.script_pubkey.serialize()
        return result


class TxTest(TestCase):

    def test_parse_version(self):
        raw_tx = bytes.fromhex('0100000001813f79011acb80925dfe69b3def355fe914bd1d96a3f5f71bf8303c6a989c7d1000000006b483045022100ed81ff192e75a3fd2304004dcadb746fa5e24c5031ccfcf21320b0277457c98f02207a986d955c6e0cb35d446a89d3f56100f4d7f67801c31967743a9c8e10615bed01210349fc4e631e3624a545de3f89f5d8684c7b8138bd94bdd531d2e213bf016b278afeffffff02a135ef01000000001976a914bc3b654dca7e56b04dca18f2566cdaf02e8d9ada88ac99c39800000000001976a9141c4bc762dd5423e332166702cb75f40df79fea1288ac19430600')
        stream = BytesIO(raw_tx)
        tx = Tx.parse(stream)
        self.assertEqual(tx.version, 1)

    def test_parse_inputs(self):
        raw_tx = bytes.fromhex('0100000001813f79011acb80925dfe69b3def355fe914bd1d96a3f5f71bf8303c6a989c7d1000000006b483045022100ed81ff192e75a3fd2304004dcadb746fa5e24c5031ccfcf21320b0277457c98f02207a986d955c6e0cb35d446a89d3f56100f4d7f67801c31967743a9c8e10615bed01210349fc4e631e3624a545de3f89f5d8684c7b8138bd94bdd531d2e213bf016b278afeffffff02a135ef01000000001976a914bc3b654dca7e56b04dca18f2566cdaf02e8d9ada88ac99c39800000000001976a9141c4bc762dd5423e332166702cb75f40df79fea1288ac19430600')
        stream = BytesIO(raw_tx)
        tx = Tx.parse(stream)
        self.assertEqual(len(tx.tx_ins), 1)
        want = bytes.fromhex('d1c789a9c60383bf715f3f6ad9d14b91fe55f3deb369fe5d9280cb1a01793f81')
        self.assertEqual(tx.tx_ins[0].prev_tx, want)
        self.assertEqual(tx.tx_ins[0].prev_index, 0)
        want = bytes.fromhex('6b483045022100ed81ff192e75a3fd2304004dcadb746fa5e24c5031ccfcf21320b0277457c98f02207a986d955c6e0cb35d446a89d3f56100f4d7f67801c31967743a9c8e10615bed01210349fc4e631e3624a545de3f89f5d8684c7b8138bd94bdd531d2e213bf016b278a')
        self.assertEqual(tx.tx_ins[0].script_sig.serialize(), want)
        self.assertEqual(tx.tx_ins[0].sequence, 0xfffffffe)

    def test_parse_outputs(self):
        raw_tx = bytes.fromhex('0100000001813f79011acb80925dfe69b3def355fe914bd1d96a3f5f71bf8303c6a989c7d1000000006b483045022100ed81ff192e75a3fd2304004dcadb746fa5e24c5031ccfcf21320b0277457c98f02207a986d955c6e0cb35d446a89d3f56100f4d7f67801c31967743a9c8e10615bed01210349fc4e631e3624a545de3f89f5d8684c7b8138bd94bdd531d2e213bf016b278afeffffff02a135ef01000000001976a914bc3b654dca7e56b04dca18f2566cdaf02e8d9ada88ac99c39800000000001976a9141c4bc762dd5423e332166702cb75f40df79fea1288ac19430600')
        stream = BytesIO(raw_tx)
        tx = Tx.parse(stream)
        self.assertEqual(len(tx.tx_outs), 2)
        want = 32454049
        self.assertEqual(tx.tx_outs[0].amount, want)
        want = bytes.fromhex('1976a914bc3b654dca7e56b04dca18f2566cdaf02e8d9ada88ac')
        self.assertEqual(tx.tx_outs[0].script_pubkey.serialize(), want)
        want = 10011545
        self.assertEqual(tx.tx_outs[1].amount, want)
        want = bytes.fromhex('1976a9141c4bc762dd5423e332166702cb75f40df79fea1288ac')
        self.assertEqual(tx.tx_outs[1].script_pubkey.serialize(), want)

    def test_parse_locktime(self):
        raw_tx = bytes.fromhex('0100000001813f79011acb80925dfe69b3def355fe914bd1d96a3f5f71bf8303c6a989c7d1000000006b483045022100ed81ff192e75a3fd2304004dcadb746fa5e24c5031ccfcf21320b0277457c98f02207a986d955c6e0cb35d446a89d3f56100f4d7f67801c31967743a9c8e10615bed01210349fc4e631e3624a545de3f89f5d8684c7b8138bd94bdd531d2e213bf016b278afeffffff02a135ef01000000001976a914bc3b654dca7e56b04dca18f2566cdaf02e8d9ada88ac99c39800000000001976a9141c4bc762dd5423e332166702cb75f40df79fea1288ac19430600')
        stream = BytesIO(raw_tx)
        tx = Tx.parse(stream)
        self.assertEqual(tx.locktime, 410393)

    def test_serialize(self):
        raw_tx = bytes.fromhex('0100000001813f79011acb80925dfe69b3def355fe914bd1d96a3f5f71bf8303c6a989c7d1000000006b483045022100ed81ff192e75a3fd2304004dcadb746fa5e24c5031ccfcf21320b0277457c98f02207a986d955c6e0cb35d446a89d3f56100f4d7f67801c31967743a9c8e10615bed01210349fc4e631e3624a545de3f89f5d8684c7b8138bd94bdd531d2e213bf016b278afeffffff02a135ef01000000001976a914bc3b654dca7e56b04dca18f2566cdaf02e8d9ada88ac99c39800000000001976a9141c4bc762dd5423e332166702cb75f40df79fea1288ac19430600')
        stream = BytesIO(raw_tx)
        tx = Tx.parse(stream)
        self.assertEqual(tx.serialize(), raw_tx)

    def test_input_value(self):
        tx_hash = 'd1c789a9c60383bf715f3f6ad9d14b91fe55f3deb369fe5d9280cb1a01793f81'
        index = 0
        want = 42505594
        tx_in = TxIn(
            prev_tx=bytes.fromhex(tx_hash),
            prev_index=index,
            script_sig=b'',
            sequence=0,
        )
        self.assertEqual(tx_in.value(), want)

    def test_input_pubkey(self):
        tx_hash = 'd1c789a9c60383bf715f3f6ad9d14b91fe55f3deb369fe5d9280cb1a01793f81'
        index = 0
        tx_in = TxIn(
            prev_tx=bytes.fromhex(tx_hash),
            prev_index=index,
            script_sig=b'',
            sequence=0,
        )
        want = bytes.fromhex('1976a914a802fc56c704ce87c42d7c92eb75e7896bdc41ae88ac')
        self.assertEqual(tx_in.script_pubkey().serialize(), want)

    def test_fee(self):
        raw_tx = bytes.fromhex('0100000001813f79011acb80925dfe69b3def355fe914bd1d96a3f5f71bf8303c6a989c7d1000000006b483045022100ed81ff192e75a3fd2304004dcadb746fa5e24c5031ccfcf21320b0277457c98f02207a986d955c6e0cb35d446a89d3f56100f4d7f67801c31967743a9c8e10615bed01210349fc4e631e3624a545de3f89f5d8684c7b8138bd94bdd531d2e213bf016b278afeffffff02a135ef01000000001976a914bc3b654dca7e56b04dca18f2566cdaf02e8d9ada88ac99c39800000000001976a9141c4bc762dd5423e332166702cb75f40df79fea1288ac19430600')
        stream = BytesIO(raw_tx)
        tx = Tx.parse(stream)
        self.assertEqual(tx.fee(), 40000)
        raw_tx = bytes.fromhex('010000000456919960ac691763688d3d3bcea9ad6ecaf875df5339e148a1fc61c6ed7a069e010000006a47304402204585bcdef85e6b1c6af5c2669d4830ff86e42dd205c0e089bc2a821657e951c002201024a10366077f87d6bce1f7100ad8cfa8a064b39d4e8fe4ea13a7b71aa8180f012102f0da57e85eec2934a82a585ea337ce2f4998b50ae699dd79f5880e253dafafb7feffffffeb8f51f4038dc17e6313cf831d4f02281c2a468bde0fafd37f1bf882729e7fd3000000006a47304402207899531a52d59a6de200179928ca900254a36b8dff8bb75f5f5d71b1cdc26125022008b422690b8461cb52c3cc30330b23d574351872b7c361e9aae3649071c1a7160121035d5c93d9ac96881f19ba1f686f15f009ded7c62efe85a872e6a19b43c15a2937feffffff567bf40595119d1bb8a3037c356efd56170b64cbcc160fb028fa10704b45d775000000006a47304402204c7c7818424c7f7911da6cddc59655a70af1cb5eaf17c69dadbfc74ffa0b662f02207599e08bc8023693ad4e9527dc42c34210f7a7d1d1ddfc8492b654a11e7620a0012102158b46fbdff65d0172b7989aec8850aa0dae49abfb84c81ae6e5b251a58ace5cfeffffffd63a5e6c16e620f86f375925b21cabaf736c779f88fd04dcad51d26690f7f345010000006a47304402200633ea0d3314bea0d95b3cd8dadb2ef79ea8331ffe1e61f762c0f6daea0fabde022029f23b3e9c30f080446150b23852028751635dcee2be669c2a1686a4b5edf304012103ffd6f4a67e94aba353a00882e563ff2722eb4cff0ad6006e86ee20dfe7520d55feffffff0251430f00000000001976a914ab0c0b2e98b1ab6dbf67d4750b0a56244948a87988ac005a6202000000001976a9143c82d7df364eb6c75be8c80df2b3eda8db57397088ac46430600')
        stream = BytesIO(raw_tx)
        tx = Tx.parse(stream)
        self.assertEqual(tx.fee(), 140500)

    def test_sig_hash(self):
        tx = TxFetcher.fetch('452c629d67e41baec3ac6f04fe744b4b9617f8f859c63b3002f8684e7a4fee03')
        want = int('27e0c5994dec7824e56dec6b2fcb342eb7cdb0d0957c2fce9882f715e85d81a6', 16)
        self.assertEqual(tx.sig_hash(0), want)

    def test_verify_p2pkh(self):
        tx = TxFetcher.fetch('452c629d67e41baec3ac6f04fe744b4b9617f8f859c63b3002f8684e7a4fee03')
        self.assertTrue(tx.verify())

    def test_verify_p2sh(self):
        tx = TxFetcher.fetch('46df1a9484d0a81d03ce0ee543ab6e1a23ed06175c104a178268fad381216c2b')
        self.assertTrue(tx.verify())

    def test_sign_input(self):
        private_key = PrivateKey(secret=8675309)
        stream = BytesIO(bytes.fromhex('010000000199a24308080ab26e6fb65c4eccfadf76749bb5bfa8cb08f291320b3c21e56f0d0d00000000ffffffff02408af701000000001976a914d52ad7ca9b3d096a38e752c2018e6fbc40cdf26f88ac80969800000000001976a914507b27411ccf7f16f10297de6cef3f291623eddf88ac00000000'))
        tx_obj = Tx.parse(stream, testnet=True)
        self.assertTrue(tx_obj.sign_input(0, private_key))
        want = '010000000199a24308080ab26e6fb65c4eccfadf76749bb5bfa8cb08f291320b3c21e56f0d0d0000006b4830450221008ed46aa2cf12d6d81065bfabe903670165b538f65ee9a3385e6327d80c66d3b502203124f804410527497329ec4715e18558082d489b218677bd029e7fa306a72236012103935581e52c354cd2f484fe8ed83af7a3097005b2f9c60bff71d35bd795f54b67ffffffff02408af701000000001976a914d52ad7ca9b3d096a38e752c2018e6fbc40cdf26f88ac80969800000000001976a914507b27411ccf7f16f10297de6cef3f291623eddf88ac00000000'
        self.assertEqual(tx_obj.serialize().hex(), want)
